:1000000062C0000088C0000086C0000084C00000FC
:1000100082C0000080C000007EC000000C94DC099B
:100020007AC0000078C0000076C0000074C00000F4
:1000300072C0000070C000006EC000006CC0000004
:1000400045C2000068C0000024C5000054C500007F
:1000500062C0000060C000005EC000005CC0000024
:100060005AC0000058C00000000000080002010053
:100070000003040700000000000000000102040863
:100080001020408001020408102001020408102002
:10009000040404040404040402020202020203032E
:1000A00003030303000000002300260029000000D2
:1000B0000000250028002B0000000000240027007D
:1000C0002A000200A90511241FBECFEFD8E0DEBF31
:1000D000CDBF11E0A0E0B1E0E8E4F5E102C0059099
:1000E0000D92A032B107D9F721E0A0E2B1E001C042
:1000F0001D92A23FB207E1F710E0C6ECD0E004C0C9
:100100002297FE010E948F0AC43CD107C9F70E94C2
:10011000380A0C94A20A74CF26E040E05BE460E069
:1001200070E080E491E055D460ED77E080E090E00D
:1001300046D261E082E0D7D260E082E00DD361E098
:1001400083E0D1D260E083E007D38ED18CB58C60A0
:100150008CBD8CB58C7F81608CBD8DB58E7F8DBD47
:100160008CB58F7D8CBD61E08AE0BDD264E670E025
:1001700080E090E024D262E084E0B5D262E085E0E5
:10018000B2D224E630E040E050E068EB71E088E075
:10019000E3C61F93CF93DF9360E08AE0DDD21EBCFD
:1001A00000000DB407FEFDCFCEB5D0E01EBC0000B0
:1001B0000DB407FEFDCF1EB561E08AE0CDD2107E02
:1001C000212F30E085E0359527958A95E1F7CE011E
:1001D00043E0880F991F4A95E1F7822B932BDF911B
:1001E000CF911F9108950F931F93BAD1609324016B
:1001F0007093250180932601909327010091280197
:100200001091290120912A0130912B01AB01BC01F1
:10021000401B510B620B730B8091080190910901F7
:10022000A0910A01B0910B01481759076A077B0793
:1002300008F447C0AEDF9093210180932001209104
:10024000220130912301281B390B37FF03C0319560
:1002500021953109233031056CF01092070110927D
:10026000060128E230E040E050E068E473E088E016
:1002700073D606C081E090E0909307018093060159
:1002800060910601709107014AE050E080E491E03E
:1002900098D58091240190912501A0912601B091DB
:1002A00027018093280190932901A0932A01B093FC
:1002B0002B01809120019091210190932301809343
:1002C00022011F910F910895CF92DF92EF92FF923A
:1002D0000F931F93CF9302E010E080E491E099D256
:1002E000181619069CF580E491E0ACD2C82F80E482
:1002F00091E030D670932D0160932C0180E491E061
:1003000029D660932E0170932F0180933001909332
:10031000310180E491E096D20A97F9F621D16093F9
:100320003201709333018093340190933501C434CA
:10033000A1F210932D0100932C0110922E01109226
:100340002F011092300110923101C7CF09D1609373
:100350002401709325018093260190932701C0907A
:100360002E01D0902F01E0903001F09031010091EA
:100370003201109133012091340130913501AB01EC
:10038000BC01401B510B620B730B4C155D056E05D8
:100390007F0578F420912C0130912D012D7F2130A3
:1003A000310539F481E2C8168EE4D806E104F1047F
:1003B00070F082E090E090932D0180932C011092D8
:1003C0002E0110922F011092300110923101809174
:1003D0002C0190912D018130910531F461E083E091
:1003E000BBD181E090E012C0039731F460E083E07C
:1003F000B3D183E090E00AC085E0E3D1892B71F3AB
:1004000084E0DFD1892B91F382E090E0CF911F91BE
:100410000F91FF90EF90DF90CF90089580910C01A5
:1004200090910D01029789F061E082E095D188EE0C
:1004300093E0EAD060E082E08FD188EE93E0E4D0F0
:1004400043DF90930D0180930C0108953DDF90935D
:100450000D0180930C01029731F062E070E080E0C2
:1004600090E0ADD0DBCFBFCECF93CFB7F8948091E3
:100470003601811123C0EAE9F0E08491E6E8F0E07A
:100480009491E82FF0E0EE0FFF1FE854FF4FA59185
:10049000B4918C91892319F461E08AE05DD161E027
:1004A0008AE021D18CB580618CBD8CB580648CBD17
:1004B00061E08DE018D161E08BE015D180913601CB
:1004C0008F5F80933601CFBFCF9108951F920F9217
:1004D0000FB60F9211242F933F938F939F93AF9357
:1004E000BF938091380190913901A0913A01B09168
:1004F0003B013091370123E0230F2D3720F4019683
:10050000A11DB11D05C026E8230F0296A11DB11D36
:10051000209337018093380190933901A0933A01D9
:10052000B0933B0180913C0190913D01A0913E012F
:10053000B0913F010196A11DB11D80933C019093A4
:100540003D01A0933E01B0933F01BF91AF919F91B8
:100550008F913F912F910F900FBE0F901F90189584
:100560002FB7F894609138017091390180913A0168
:1005700090913B012FBF08953FB7F89480913C01C3
:1005800090913D01A0913E01B0913F0126B5A89BFD
:1005900005C02F3F19F00196A11DB11D3FBF662771
:1005A000782F892F9A2F620F711D811D911D42E0B6
:1005B000660F771F881F991F4A95D1F70895CF922C
:1005C000DF92EF92FF92CF93DF936B017C01D4DF38
:1005D000EB01C114D104E104F10479F055D7CCDF6B
:1005E0006C1B7D0B683E7340A0F381E0C81AD108F4
:1005F000E108F108C851DC4FECCFDF91CF91FF90BB
:10060000EF90DF90CF9008950197009739F0880F11
:10061000991F880F991F02970197F1F70895789411
:1006200084B5826084BD84B5816084BD85B58260F7
:1006300085BD85B5816085BDEEE6F0E08081816095
:100640008083E1E8F0E01082808182608083808195
:1006500081608083E0E8F0E0808181608083E1EB6D
:10066000F0E0808184608083E0EBF0E08081816055
:100670008083EAE7F0E0808184608083808182600B
:1006800080838081816080838081806880831092F4
:10069000C1000895833081F028F4813099F08230D0
:1006A000A1F008958730A9F08830B9F08430D1F4F2
:1006B000809180008F7D03C0809180008F77809330
:1006C0008000089584B58F7702C084B58F7D84BD86
:1006D00008958091B0008F7703C08091B0008F7D26
:1006E0008093B0000895CF93DF9390E0FC01E4582D
:1006F000FF4F2491FC01E057FF4F8491882349F17B
:1007000090E0880F991FFC01E854FF4FA591B49128
:1007100082559F4FFC01C591D4919FB7611108C0CC
:10072000F8948C91209582238C93888182230AC02F
:10073000623051F4F8948C91322F309583238C934E
:100740008881822B888304C0F8948C91822B8C93AF
:100750009FBFDF91CF9108950F931F93CF93DF93A6
:100760001F92CDB7DEB7282F30E0F901E859FF4FCF
:100770008491F901E458FF4F1491F901E057FF4FBC
:1007800004910023C1F0882319F0698383DF698114
:10079000E02FF0E0EE0FFF1FE255FF4FA591B4915F
:1007A0009FB7F8948C91611103C01095812301C00B
:1007B000812B8C939FBF0F90DF91CF911F910F9151
:1007C0000895CF93DF93282F30E0F901E859FF4FC8
:1007D0008491F901E458FF4FD491F901E057FF4F9C
:1007E000C491CC2389F0811155DFEC2FF0E0EE0F9E
:1007F000FF1FEC55FF4FA591B4912C912D2381E063
:1008000090E021F480E002C080E090E0DF91CF91A1
:100810000895FC01818D228D90E0805C9F4F821BAA
:1008200091098F7399270895FC01918D828D9817F6
:1008300031F0828DE80FF11D858D90E008958FEFE6
:100840009FEF0895FC01918D828D981761F0828D44
:10085000DF01A80FB11D5D968C91928D9F5F9F73F4
:10086000928F90E008958FEF9FEF089580EA95E0D2
:10087000892B41F080E090E0892B21F061D181113A
:100880000C9400000895FC01848DDF01A80FB11DB8
:10089000A35ABF4F2C91848D90E001968F739927B6
:1008A000848FA689B7892C93A089B1898C918064A3
:1008B0008C93938D848D981306C00288F389E02D64
:1008C00080818F7D80830895CF93DF93EC01888DA5
:1008D0008823C1F0EA89FB89808185FD05C0A8894C
:1008E000B9898C9186FD0EC00FB607FCF5CF8081CB
:1008F00085FFF2CFA889B9898C9185FFEDCFCE0114
:10090000C2DFE8CFDF91CF910895CF92DF92FF92BF
:100910000F931F93CF93DF931F92CDB7DEB76C0178
:10092000DC015B969C915B975C968C915C9798132D
:1009300007C05096ED91FC915197808185FD31C0A3
:10094000F601038D10E00F5F1F4F0F731127F02E7C
:10095000F601848DF81210C00FB607FCF9CFD6014E
:100960005096ED91FC915197808185FFF1CFC601A2
:10097000698389DF6981ECCF838DE80FF11DE35A2C
:10098000FF4F6083D6015B960C935B975296ED9177
:10099000FC91539780818062808381E058968C938C
:1009A0000DC0D6015696ED91FC91579760835096F5
:1009B000ED91FC91519780818064808381E090E08B
:1009C0000F90DF91CF911F910F91FF90DF90CF900B
:1009D0000895BF92CF92DF92EF92FF92CF93DF9371
:1009E000EC016A017B01B22EE889F98982E08083FB
:1009F000411581EE58076105710599F060E079E0D5
:100A00008DE390E0A701960140D5215031094109BD
:100A100051095695479537952795211580E1380757
:100A200090F0E889F989108260E874E88EE190E03E
:100A3000A70196012AD5215031094109510956953E
:100A4000479537952795EC85FD853083EE85FF85A5
:100A50002083188EEC89FD89B082EA89FB89808128
:100A600080618083EA89FB89808188608083EA894C
:100A7000FB89808180688083EA89FB8980818F7D02
:100A80008083DF91CF91FF90EF90DF90CF90BF9068
:100A900008951F920F920FB60F9211242F938F93E8
:100AA0009F93EF93FF93E0915001F091510180816A
:100AB000E0915601F091570182FD12C09081809122
:100AC00059018F5F8F7320915A01821751F0E09185
:100AD0005901F0E0E05CFE4F958F8093590101C011
:100AE0008081FF91EF919F918F912F910F900FBE79
:100AF0000F901F9018951F920F920FB60F9211240E
:100B00002F933F934F935F936F937F938F939F9315
:100B1000AF93BF93EF93FF9380E491E0B4DEFF9136
:100B2000EF91BF91AF919F918F917F916F915F9165
:100B30004F913F912F910F900FBE0F901F901895DE
:100B400080E491E066DE21E0892B09F420E0822F29
:100B50000895109243011092420188EE93E0A0E0C4
:100B6000B0E08093440190934501A0934601B09377
:100B7000470183E191E0909341018093400185EC2E
:100B800090E090934D0180934C0184EC90E0909321
:100B90004F0180934E0180EC90E09093510180933F
:100BA000500181EC90E0909353018093520182ECCC
:100BB00090E0909355018093540186EC90E09093DF
:100BC0005701809356011092590110925A011092C8
:100BD0005B0110925C010895CF92DF92EF92FF9239
:100BE0000F931F93CF93DF936C017A01EB01E60E15
:100BF000F71E00E010E0CE15DF0561F06991D60127
:100C0000ED91FC910190F081E02DC6010995080F4E
:100C1000191FF1CFC801DF91CF911F910F91FF9064
:100C2000EF90DF90CF9008956115710581F0DB01A1
:100C30000D900020E9F7AD0141505109461B570BBB
:100C4000DC01ED91FC910280F381E02D099480E0BC
:100C500090E00895DC01ED91FC910190F081E02D90
:100C600009940F931F93CF93DF93EC016DE0F2DFB4
:100C70008C016AE0CE01EEDF800F911FDF91CF91F2
:100C80001F910F9108958F929F92AF92BF92CF9232
:100C9000DF92EF92FF920F931F93CF93DF93CDB725
:100CA000DEB7A1970FB6F894DEBF0FBECDBF7C01B3
:100CB000C42EE52FCB01D22E19A221E02D1510F064
:100CC0002AE0D22E8E010F5D1F4F8D2C912CA12C6E
:100CD000B12C6C2D7E2FA5019401D7D38C2DD29EE3
:100CE00080191124015011098A3014F4805D01C06B
:100CF000895CF8018083211531054105510521F0FA
:100D0000C22EE32FCA01E5CFB801C7018DDFA1963E
:100D10000FB6F894DEBF0FBECDBFDF91CF911F910C
:100D20000F91FF90EF90DF90CF90BF90AF909F908A
:100D30008F900895CF92DF92EF92FF920F931F93BF
:100D4000CF93DF93EC016A017B012115310579F422
:100D5000E881F9810190F081E02D642FDF91CF913E
:100D60001F910F91FF90EF90DF90CF9009942A3060
:100D70003105D9F477FF18C06DE26CDF8C01442790
:100D80005527BA014C195D096E097F092AE0CE0189
:100D90007ADF800F911FDF91CF911F910F91FF900C
:100DA000EF90DF90CF9008952AE0B701A601CE0121
:100DB000DF91CF911F910F91FF90EF90DF90CF9037
:100DC00062CF0F931F93CF93DF93EC019A01AB0196
:100DD000662757FD6095762FADDF8C01CE0141DF90
:100DE000800F911FDF91CF911F910F9108950F9365
:100DF0001F93CF93DF93EC01B3DB688779878A87F2
:100E00009B87E881F9810084F185E02DCE01099569
:100E100097FF14C0A5DB088519852A853B85601BD3
:100E2000710B820B930B0C811D812E813F8160170A
:100E300071078207930728F38FEF9FEFDF91CF9120
:100E40001F910F910895CF93DF93EC01CE01CFDF77
:100E500097FD11C08D32910571F09C01205331092D
:100E60002A30310540F0E881F9810680F781E02DD4
:100E7000CE010995EBCFDF91CF910895CF92DF920C
:100E8000FF920F931F93CF93DF9300D000D0CDB785
:100E9000DEB76C01062FD7DFFC0197FD49C020E0CB
:100EA00030E0A901F12C112707FD1095E017F1079B
:100EB000E1F0ED32F105B9F0CF01C0970A97A8F43F
:100EC000AAE0B0E020D39B01AC01CF01AA2797FD97
:100ED000A095BA2F280F391F4A1F5B1F20533109D5
:100EE0004109510902C0FF24F394D601ED91FC9110
:100EF0000680F781E02DC60129833A834B835C830A
:100F00000995C60174DFFC01C09729813A814B81A4
:100F10005C810A9758F2E017F10741F2FF2061F077
:100F200066277727CB01621B730B840B950B06C0DA
:100F300060E070E0CB0102C0CA01B9010F900F90D0
:100F40000F900F90DF91CF911F910F91FF90DF9045
:100F5000CF90089561E092CF3F924F925F926F924F
:100F60007F928F929F92AF92BF92CF92DF92EF9239
:100F7000FF920F931F93CF93DF9300D000D0CDB794
:100F8000DEB78B0129013A0190910E01981721F0EB
:100F90009F3F09F0C8C104C0E2ECF0E0349081C08A
:100FA00080930E01E2ECF0E0E491EF3F09F4BBC165
:100FB000E13031F1E23009F44BC0E11171C014BCF1
:100FC00015BC94B5926094BD95B5916095BD282FE0
:100FD00030E0F901E057FF4FE491F0E0EE0FFF1F22
:100FE000E255FF4F459154915093ED014093EC0130
:100FF000F901E458FF4F24912093EB01312C53C0A9
:1010000010928000109281009091810098609093DE
:10101000810090918100916090938100282F30E0B1
:10102000F901E057FF4FE491F0E0EE0FFF1FE255AA
:10103000FF4F459154915093E6014093E501F9012A
:10104000E458FF4F24912093E401332433942BC0C0
:101050001092B0001092B1009091B0009260909305
:10106000B0009091B10091609093B100282F30E0D2
:10107000F901E057FF4FE491F0E0EE0FFF1FE2555A
:10108000FF4F459154915093DF014093DE01F901E8
:10109000E458FF4F24912093DD0152E0352E03C028
:1010A0003E2E37FC40C161E01EDB4801A12CB12C73
:1010B000832D8D7F09F0BAC060E072E18AE790E08D
:1010C000A501940104D229833A834B835C8369018F
:1010D0007A0181E0C81AD108E108F1089FEFC9162A
:1010E000D104E104F10409F008F495C060E472E46D
:1010F0008FE090E0A5019401EAD169017A01E1E075
:10110000CE1AD108E108F108F2E03F1218C08FEFC3
:10111000C816D104E104F10409F008F483C060E9C1
:1011200070ED83E090E0A5019401D1D169017A01CD
:1011300091E0C91AD108E108F10883E001C082E01A
:10114000EFEFCE16D104E104F10409F008F464C015
:1011500068E478EE81E090E0A5019401B8D16901DE
:101160007A01F1E0CF1AD108E108F1083320D9F073
:1011700082E038121AC09FEFC916D104E104F104CD
:1011800009F008F4CEC064E274EF80E090E0A501BD
:1011900094019DD169017A01E1E0CE1AD108E108FC
:1011A000F10885E003C083E001C084E0FFEFCF16C3
:1011B000D104E104F10481F178F162E17AE780E0A1
:1011C00090E0A501940183D169017A0181E0C81AF8
:1011D000D108E108F108311002C084E001C086E0C6
:1011E0009FEFC916D104E104F104B1F0A8F0C98061
:1011F000DA80EB80FC809AE0F594E794D794C7946A
:101200009A95D1F7E1E0CE1AD108E108F108332030
:1012100031F087E008C081E0332011F004C085E0A0
:1012200085BD32C082E08093B1002EC060E072E1E3
:101230008AE790E0A50194014AD169017A01F1E0C1
:10124000CF1AD108E108F108C114D10481E0E80601
:10125000F10480F068E478EE81E090E0A50194016B
:1012600036D169017A0191E0C91AD108E108F10883
:1012700093E001C091E0E1E03E1206C08091810060
:10128000887F892B8093810041145104610471048B
:1012900061F0D801AA0FBB1FA301920134D128EE3F
:1012A00033E040E050E0F1D003C02FEF3FEFA90161
:1012B000F1E03F16A1F082E0381619F1311033C089
:1012C000C7BC2093EE013093EF014093F00150939F
:1012D000F10180916E00826080936E0024C0D092F4
:1012E0008900C09288002093E7013093E801409381
:1012F000E9015093EA0180916F00826080936F0052
:1013000012C0C092B3002093E0013093E1014093FA
:10131000E2015093E301809170008260809370003D
:1013200002C084E080CF0F900F900F900F90DF915C
:10133000CF911F910F91FF90EF90DF90CF90BF90D2
:10134000AF909F908F907F906F905F904F903F9065
:101350000895813039F018F0823051F008951092DC
:101360006E00089580916F008D7F80936F000895C7
:10137000809170008D7F8093700081E08093B00039
:101380008091B100887F84608093B1001092B30097
:101390000895CF93C82F80910E018C1307C0E2EC03
:1013A000F0E084919FEF90930E0101C08FEFD1DFA9
:1013B00060E08C2FCF91D0C91F920F920FB60F9281
:1013C00011242F933F934F935F936F937F938F934A
:1013D0009F93AF93BF93EF93FF938091E001909120
:1013E000E101A091E201B091E301892B8A2B8B2BC3
:1013F00051F19091DD01E091DE01F091DF018081FA
:10140000892780838091E0019091E101A091E20120
:10141000B091E301181619061A061B06BCF4809158
:10142000E0019091E101A091E201B091E301019707
:10143000A109B1098093E0019093E101A093E20139
:10144000B093E30103C080910E01A3DFFF91EF9100
:10145000BF91AF919F918F917F916F915F914F91CC
:101460003F912F910F900FBE0F901F9018950895E8
:10147000D6D8FDDF0E948C00C6E3D4E00E9426028D
:101480002097E1F3F3D9FACF0895A1E21A2EAA1B0F
:10149000BB1BFD010DC0AA1FBB1FEE1FFF1FA21724
:1014A000B307E407F50720F0A21BB30BE40BF50B21
:1014B000661F771F881F991F1A9469F760957095AA
:1014C000809590959B01AC01BD01CF010895052E3B
:1014D00097FB16F400940FD057FD05D0D6DF07FC1C
:1014E00002D046F408C050954095309521953F4F65
:1014F0004F4F5F4F089590958095709561957F4F00
:101500008F4F9F4F08950FD0A59F900DB49F900DC2
:10151000A49F800D911D11240895EE0FFF1F0590CB
:10152000F491E02D0994A29FB001B39FC001A39F45
:10153000700D811D1124911DB29F700D811D11240C
:08154000911D0895F894FFCFFE
:101548000000F20120000100C80000000200FF00B6
:101558000000008504EC0509042204140464040056
:00000001FF
