:1000000062C0000085C0000083C00000D8C10000AD
:10001000D6C10000D4C100007BC0000079C0000040
:1000200077C0000075C0000073C0000071C0000000
:100030006FC000006DC000006BC0000069C0000010
:1000400046C3000065C0000063C0000061C000003E
:100050005FC000005DC000005BC0000059C0000030
:1000600057C0000055C00000000000080002010059
:100070000003040700000000000000000102040863
:100080001020408001020408102001020408102002
:10009000040404040404040402020202020203032E
:1000A00003030303000000002300260029000000D2
:1000B0000000250028002B0000000000240027007D
:1000C0002A0089008F0011241FBECFEFD8E0DEBFC9
:1000D000CDBF11E0A0E0B1E0ECE1FBE002C0059093
:1000E0000D92AA32B107D9F721E0AAE2B1E001C02E
:1000F0001D92A639B207E1F710E0C4ECD0E003C0CE
:100100002297FE01FBD4C23CD107D1F784D4FAC4B4
:1001100077CF20E046E06FEF8AE291E01EC28AE2EC
:1001200091E0C7C161E08DE0C8D361E086E0C5D34E
:1001300061E086E0FBD360E082E0BFD340E855E2B7
:1001400060E070E08AE291E036D264E670E080E040
:1001500090E02AD36CE08AE291E062D061E18AE229
:1001600091E05ED065E070E080E090E01DD360E05B
:1001700071E08AE291E04DD46DE08AE291E050D0E6
:100180006FE071E08AE291E044D464ED8AE291E0AC
:1001900047D06CED8AE291E043D068EB7BE080E0F1
:1001A00090E002C36CE08AE291E03AD06DE08AE22E
:1001B00091E036D064E171E08AE291E02AD461E016
:1001C0008DE0B4D364E670E080E090E0EDD260E0D2
:1001D0008DE0ACD364E670E080E090E0E5C2209171
:1001E0008B0130918C0128173907B9F4909149019E
:1001F00080914A01981789F0E0914901F0E0E55BB0
:10020000FE4F80812091490130E02F5F3F4F2F73D7
:1002100033272093490190E008958FEF9FEF0895D1
:100220001F93CF93DF93DC015C968D919C915D973A
:10023000009749F481E090E013969C938E93129777
:1002400080E090E03BC05196ED91FC915297509622
:100250002C915097322F30951FB75E964C915E9738
:1002600041FB772770F941FD6095F8944081772331
:1002700011F0422B01C043234083EC012197F1F799
:1002800048E0508160FF02C0522B01C053235083CD
:10029000EC012197F1F76695415099F7808177231A
:1002A00011F0832301C0822B80831FBF5C968D9148
:1002B0009C915D970197F1F781E090E0DF91CF91FC
:1002C0001F91089520918B0130918C0128173907D7
:1002D00081F49091490180914A01981751F0E09181
:1002E0004901F0E0E55BFE4F8081992787FD9095FD
:1002F00008958FEF9FEF089520918B0130918C012D
:100300002817390761F480914A012091490190E052
:10031000805C9F4F821B910960E470E088C380E09D
:1003200090E0089520918B0130918C0128173907B6
:1003300039F48FB7F89410924A01109249018FBF97
:100340000895E0918B01F0918C01E817F90769F4A9
:10035000A389B4899C918589809589238C93109277
:100360008C0110928B0181E0089580E00895CF9375
:10037000DF93EC018A8D9B8D892BE9F080918B01B5
:1003800090918C018C179D07B1F0009709F0D9DF8F
:100390008E8D8E7F8E8F10924A0110924901D093DC
:1003A0008C01C0938B01EB89FC8980819D89892B0D
:1003B000808381E001C080E0DF91CF9108951F929A
:1003C0000F920FB60F9211242F933F934F935F9389
:1003D0006F937F938F939F93AF93BF93EF93FF930D
:1003E000E0918B01F0918C01309709F451C0868D1A
:1003F000A685B785958581FF04C08C91892329F452
:1004000047C08C91892309F043C0A389B4899C918A
:100410008589809589238C93868997890197F1F73F
:10042000208D318DA685B785758558E040E0C901DE
:100430000197F1F7842F90E095958795482F6C915F
:10044000672309F04068515091F7868D81FD4095F2
:1004500080914A0190E001968F739927209149017C
:10046000281749F0A0914A01B0E0A55BBE4F4C931C
:1004700080934A0103C0868D8160868F828D938D23
:100480000197F1F7A389B4898C919589892B8C9375
:10049000FF91EF91BF91AF919F918F917F916F915C
:1004A0005F914F913F912F910F900FBE0F901F9032
:1004B00018952EE131E0FC013183208342CF1F9358
:1004C000CF93DF93EC01162F6E8D6695617081E0FE
:1004D0006827812F2BD261E0812FEFD1812F90E00F
:1004E000FC01E458FF4FE491E88BFC01E057FF4F1B
:1004F000E491F0E0EE0FFF1FE255FF4F85919491DC
:100500009A8B898BDF91CF911F9108951F93CF9381
:10051000DF93EC01162F60E0812FCFD18E8D81FD0E
:1005200003C061E0812F02D21C87812F90E0FC0183
:10053000E458FF4FE491ED87FC01E057FF4FE49151
:10054000F0E0EE0FFF1FEC55FF4F859194919F87D0
:100550008E87DF91CF911F910895FF920F931F9384
:10056000CF93DF93EC01F62E522F1B821A8208EEF6
:1005700013E020E030E00C831D832E833F838EE167
:1005800091E0998388831F8A1E8A198E188E1B8E8C
:100590001A8E1D8E1C8E8E8D8E7F50FB81F98E8F54
:1005A000642FCE018CDF6F2DCE01DF91CF911F9193
:1005B0000F91FF90ABCFCF93DF93EC019A01AB018A
:1005C0001B8E1A8E198E188E1F8A1E8A60E079E0A3
:1005D0008DE390E061D2C9012430310520F0B901EA
:1005E0006350710902C061E070E07D8F6C8FEC8513
:1005F000E63108F068C0B9017695679564317105F8
:1006000018F06351710902C061E070E07F8B6E8B5E
:10061000069718F0C901059702C081E090E0998F14
:10062000888FC901880F991F820F931F9695879510
:10063000969587958D30910510F00C9702C081E05A
:1006400090E09B8F8A8F20916800E83050F091E015
:10065000EE3008F490E081E001C0880F9A95EAF747
:1006600001C084E0822B809368002C85283038F00C
:100670002E3040F0263148F48CE690E008C08DE63C
:1006800090E005C08BE690E002C080E090E09C8B9B
:100690008B8B283030F481E001C0880F2A95EAF76F
:1006A0000DC0822F90E02E3010F4089701C00E97F5
:1006B00091E001C0990F8A95EAF7892F8D8B8C8D77
:1006C0009D8D0197F1F7CE01DF91CF9150CE1F9212
:1006D0000F920FB60F9211242F933F938F939F93F6
:1006E000AF93BF9380918E0190918F01A091900163
:1006F000B091910130918D0123E0230F2D3720F42B
:100700000196A11DB11D05C026E8230F0296A11D6B
:10071000B11D20938D0180938E0190938F01A09342
:100720009001B09391018091920190919301A091D9
:100730009401B09195010196A11DB11D8093920184
:1007400090939301A0939401B0939501BF91AF91C1
:100750009F918F913F912F910F900FBE0F901F90FF
:1007600018953FB7F8948091920190919301A091D0
:100770009401B091950126B5A89B05C02F3F19F0B3
:100780000196A11DB11D3FBF6627782F892F9A2F93
:10079000620F711D811D911D42E0660F771F881F3A
:1007A000991F4A95D1F70895CF92DF92EF92FF9269
:1007B000CF93DF936B017C01D4DFEB01C114D10433
:1007C000E104F10479F032D1CCDF6C1B7D0B683E83
:1007D0007340A0F381E0C81AD108E108F108C851BC
:1007E000DC4FECCFDF91CF91FF90EF90DF90CF9077
:1007F0000895789484B5826084BD84B5816084BD99
:1008000085B5826085BD85B5816085BDEEE6F0E089
:10081000808181608083E1E8F0E0108280818260E5
:100820008083808181608083E0E8F0E08081816066
:100830008083E1EBF0E0808184608083E0EBF0E096
:10084000808181608083EAE7F0E08081846080833A
:1008500080818260808380818160808380818068E4
:1008600080831092C1000895833081F028F4813094
:1008700099F08230A1F008958730A9F08830B9F05E
:100880008430D1F4809180008F7D03C080918000FE
:100890008F7780938000089584B58F7702C084B5E8
:1008A0008F7D84BD08958091B0008F7703C08091C3
:1008B000B0008F7D8093B0000895CF93DF9390E0D8
:1008C000FC01E458FF4F2491FC01E057FF4F849155
:1008D000882349F190E0880F991FFC01E854FF4FED
:1008E000A591B49182559F4FFC01C591D4919FB7BA
:1008F000611108C0F8948C91209582238C93888193
:1009000082230AC0623051F4F8948C91322F3095D2
:1009100083238C938881822B888304C0F8948C91E4
:10092000822B8C939FBFDF91CF9108950F931F93DC
:10093000CF93DF931F92CDB7DEB7282F30E0F901B8
:10094000E859FF4F8491F901E458FF4F1491F901E0
:10095000E057FF4F04910023C1F0882319F0698309
:1009600083DF6981E02FF0E0EE0FFF1FE255FF4FBC
:10097000A591B4919FB7F8948C91611103C0109523
:10098000812301C0812B8C939FBF0F90DF91CF916A
:100990001F910F910895CF92DF92EF92FF920F93E4
:1009A0001F93CF93DF936C017A01EB01E60EF71EE4
:1009B00000E010E0CE15DF0561F06991D601ED9100
:1009C000FC910190F081E02DC6010995080F191FD7
:1009D000F1CFC801DF91CF911F910F91FF90EF9060
:1009E000DF90CF9008956115710581F0DB010D90C6
:1009F0000020E9F7AD0141505109461B570BDC01BE
:100A0000ED91FC910280F381E02D099480E090E06B
:100A10000895E9CF0895EDDEFDDF84DBC0E0D0E08E
:100A2000C1DB2097E9F30E940000FACF089597FBFD
:100A3000072E16F4009406D077FD08D049D007FCA5
:100A400005D03EF4909581959F4F089570956195DE
:100A50007F4F0895A1E21A2EAA1BBB1BFD010DC0FA
:100A6000AA1FBB1FEE1FFF1FA217B307E407F5075E
:100A700020F0A21BB30BE40BF50B661F771F881F3A
:100A8000991F1A9469F760957095809590959B01D0
:100A9000AC01BD01CF010895052E97FB16F400941B
:100AA0000FD057FD05D0D6DF07FC02D046F408C0B2
:100AB00050954095309521953F4F4F4F5F4F08958A
:100AC00090958095709561957F4F8F4F9F4F0895BA
:100AD000AA1BBB1B51E107C0AA1FBB1FA617B70764
:100AE00010F0A61BB70B881F991F5A95A9F7809580
:100AF0009095BC01CD010895EE0FFF1F0590F49174
:100B0000E02D099410E0C4ECD0E003C0FE01F6DF54
:0C0B10002296C63CD107D1F7F894FFCF25
:100B1C005265616420616E616C6F6720696E002E96
:100B2C002E2E21007468696E670000000000100111
:0A0B3C00CB047C01EF00620192017E
:00000001FF
