:100000005CC000007FC000007DC000007BC000001D
:1000100079C0000077C0000075C0000073C0000008
:1000200071C000006FC000006DC000006BC0000018
:1000300069C0000067C0000065C0000063C0000028
:1000400037C100005FC000005DC400008DC4000027
:1000500059C0000057C0000055C0000053C0000048
:1000600051C000004FC00000000000080002010065
:100070000003040700000000000000000102040863
:100080001020408001020408102001020408102002
:10009000040404040404040402020202020203032E
:1000A0000303030300000000250028002B000000CC
:1000B0000000240027002A00E20411241FBECFEF15
:1000C000D8E0DEBFCDBF11E0A0E0B1E0E8E1FCE0A8
:1000D00002C005900D92A232B107D9F721E0A2E249
:1000E000B1E001C01D92A63DB207E1F710E0CAEBF6
:1000F000D0E003C02297FE017AD5C83BD107D1F7E3
:1001000012D588C57DCF61E080910A014DD261E0B2
:100110008091080149D261E08091060145D261E0F9
:100120008091040141D226E040E855E260E070E0B1
:1001300089E391E087C361E080910A016ED261E0BA
:10014000809106016AD260E08091040166C261E09C
:1001500080910A0162D260E0809106015ED261E086
:10016000809104015AC260E080910A0156D260E099
:100170008091060152D260E0809104014EC2AF929C
:10018000BF92CF92DF92EF92FF920F931F938091D5
:10019000260167D19093250180932401BC01882713
:1001A00077FD8095982F1F921F921F922FEF2F930C
:1001B000AA24A394BB24BA94CB2CDB2CEE24EA947F
:1001C00013E0F12E00E010E020E030E0A90165D45A
:1001D0007093250160932401B5D06093280170933A
:1001E000290180932A0190932B0100912C011091F9
:1001F0002D0120912E0130912F01AB01BC01401B3C
:10020000510B620B730B0F900F900F900F9080911A
:100210000C0190910D01A0910E01B0910F014817B2
:1002200059076A077B0778F16091240170912501D5
:1002300080912201909123018617970711F493DF93
:1002400012C077FD05C08091080128D174DF0BC072
:1002500071956195710970932501609324018091D6
:1002600008011CD174DF8091280190912901A0918F
:100270002A01B0912B0180932C0190932D01A09322
:100280002E01B0932F01809124019091250190932C
:1002900023018093220164E670E080E090E01F91EA
:1002A0000F91FF90EF90DF90CF90BF90AF9079C00B
:1002B0001F920F920FB60F9211242F933F938F939B
:1002C0009F93AF93BF938091310190913201A091A0
:1002D0003301B09134013091300123E0230F2D37E9
:1002E00020F40196A11DB11D05C026E8230F02963A
:1002F000A11DB11D209330018093310190933201F3
:10030000A0933301B093340180913501909136016F
:10031000A0913701B09138010196A11DB11D8093C4
:10032000350190933601A0933701B0933801BF9106
:10033000AF919F918F913F912F910F900FBE0F9092
:100340001F9018952FB7F894609131017091320188
:1003500080913301909134012FBF08953FB7F894F5
:100360008091350190913601A0913701B09138010B
:1003700026B5A89B05C02F3F19F00196A11DB11D00
:100380003FBF6627782F892F9A2F620F711D811D1D
:10039000911D42E0660F771F881F991F4A95D1F77C
:1003A0000895CF92DF92EF92FF92CF93DF936B018C
:1003B0007C01D4DFEB01C114D104E104F10479F034
:1003C000BCD3CCDF6C1B7D0B683E7340A0F381E097
:1003D000C81AD108E108F108C851DC4FECCFDF9111
:1003E000CF91FF90EF90DF90CF900895789484B5EF
:1003F000826084BD84B5816084BD85B5826085BD21
:1004000085B5816085BDEEE6F0E080818160808306
:10041000E1E8F0E0108280818260808380818160E9
:100420008083E0E8F0E0808181608083E1EBF0E0B0
:10043000808184608083E0EBF0E080818160808354
:10044000EAE7F0E08081846080838081826080833D
:100450008081816080838081806880831092C10068
:1004600008958E3008F08E5087702091100190E42E
:10047000299F90011124822B80937C0080917A0027
:10048000806480937A0080917A0086FDFCCF809111
:1004900078002091790090E0922B08951F93CF93DC
:1004A000DF93182FEB0161E07FD0209711F460E01B
:1004B00004C0CF3FD10531F461E0812FDF91CF91AE
:1004C0001F91ABC0E12FF0E0E859FF4FE491E3301A
:1004D000F9F048F4E130B9F0E230A1F584B580627A
:1004E00084BDC8BD34C0E730E9F0E83019F1E4302C
:1004F00049F580918000806280938000D0938B00CA
:10050000C0938A0024C084B5806884BDC7BD1FC065
:1005100080918000806880938000D0938900C09390
:10052000880015C08091B00080688093B000C093AF
:10053000B3000DC08091B00080628093B000C09382
:10054000B40005C0C038D1050CF0B6CFB0CFDF91F4
:10055000CF911F910895833081F028F4813099F074
:100560008230A1F008958730A9F08830B9F0843046
:10057000D1F4809180008F7D03C0809180008F77BF
:1005800080938000089584B58F7702C084B58F7DF5
:1005900084BD08958091B0008F7703C08091B00032
:1005A0008F7D8093B0000895CF93DF9390E0FC019E
:1005B000E458FF4F2491FC01E057FF4F84918823BA
:1005C00049F190E0880F991FFC01E255FF4FA5917A
:1005D000B4918C559F4FFC01C591D4919FB7611187
:1005E00008C0F8948C91209582238C938881822373
:1005F0000AC0623051F4F8948C91322F30958323E5
:100600008C938881822B888304C0F8948C91822BF0
:100610008C939FBFDF91CF9108950F931F93CF933A
:10062000DF931F92CDB7DEB7282F30E0F901E859EC
:10063000FF4F8491F901E458FF4F1491F901E057FD
:10064000FF4F04910023C1F0882319F0698383DFF1
:100650006981E02FF0E0EE0FFF1FEC55FF4FA591F1
:10066000B4919FB7F8948C91611103C010958123C8
:1006700001C0812B8C939FBF0F90DF91CF911F9171
:100680000F910895FC01818D228D90E0805C9F4F39
:10069000821B91098F7399270895FC01918D828D9A
:1006A000981731F0828DE80FF11D858D90E0089547
:1006B0008FEF9FEF0895FC01918D828D981761F067
:1006C000828DDF01A80FB11D5D968C91928D9F5F89
:1006D0009F73928F90E008958FEF9FEF089589EDBB
:1006E00094E0892B41F080E090E0892B21F061D1EA
:1006F00081110C9400000895FC01848DDF01A80F86
:10070000B11DA35ABF4F2C91848D90E001968F7339
:100710009927848FA689B7892C93A089B1898C9158
:1007200080648C93938D848D981306C00288F3891E
:10073000E02D80818F7D80830895CF93DF93EC013E
:10074000888D8823C1F0EA89FB89808185FD05C0F9
:10075000A889B9898C9186FD0EC00FB607FCF5CF2C
:10076000808185FFF2CFA889B9898C9185FFEDCF73
:10077000CE01C2DFE8CFDF91CF910895CF92DF9213
:10078000FF920F931F93CF93DF931F92CDB7DEB7E6
:100790006C01DC015B969C915B975C968C915C97FD
:1007A000981307C05096ED91FC915197808185FD7B
:1007B00031C0F601038D10E00F5F1F4F0F7311273B
:1007C000F02EF601848DF81210C00FB607FCF9CF99
:1007D000D6015096ED91FC915197808185FFF1CF24
:1007E000C601698389DF6981ECCF838DE80FF11D34
:1007F000E35AFF4F6083D6015B960C935B9752964A
:10080000ED91FC91539780818062808381E05896BE
:100810008C930DC0D6015696ED91FC91579760834D
:100820005096ED91FC91519780818064808381E0A6
:1008300090E00F90DF91CF911F910F91FF90DF908B
:10084000CF900895BF92CF92DF92EF92FF92CF9315
:10085000DF93EC016A017B01B22EE889F98982E01D
:100860008083411581EE58076105710599F060E0BC
:1008700079E08DE390E0A70196016FD12150310915
:10088000410951095695479537952795211580E1DE
:10089000380790F0E889F989108260E874E88EE101
:1008A00090E0A701960159D1215031094109510920
:1008B0005695479537952795EC85FD853083EE85D0
:1008C000FF852083188EEC89FD89B082EA89FB8937
:1008D000808180618083EA89FB8980818860808350
:1008E000EA89FB89808180688083EA89FB8980812D
:1008F0008F7D8083DF91CF91FF90EF90DF90CF903D
:10090000BF9008951F920F920FB60F9211242F934C
:100910008F939F93EF93FF93E0914901F0914A01E8
:100920008081E0914F01F091500182FD12C09081D1
:10093000809152018F5F8F7320915301821751F084
:10094000E0915201F0E0E75CFE4F958F80935201F9
:1009500001C08081FF91EF919F918F912F910F9016
:100960000FBE0F901F9018951F920F920FB60F9207
:1009700011242F933F934F935F936F937F938F93A4
:100980009F93AF93BF93EF93FF9389E391E0B4DE1E
:10099000FF91EF91BF91AF919F918F917F916F9157
:1009A0005F914F913F912F910F900FBE0F901F902D
:1009B000189589E391E066DE21E0892B09F420E0B7
:1009C000822F089510923C0110923B0188EE93E033
:1009D000A0E0B0E080933D0190933E01A0933F01E1
:1009E000B093400185E191E090933A018093390101
:1009F00085EC90E0909346018093450184EC90E073
:100A0000909348018093470180EC90E090934A01D5
:100A10008093490181EC90E090934C0180934B01CD
:100A200082EC90E090934E0180934D0186EC90E033
:100A30009093500180934F011092520110925301F4
:100A400010925401109255010895CF92DF92EF92C7
:100A5000FF920F931F93CF93DF936C017A01EB0109
:100A6000E60EF71E00E010E0CE15DF0561F069919B
:100A7000D601ED91FC910190F081E02DC601099520
:100A8000080F191FF1CFC801DF91CF911F910F916E
:100A9000FF90EF90DF90CF9008954F925F926F920A
:100AA0007F92AF92BF92CF92DF92EF92FF920F931D
:100AB0001F93CF93DF93CDB7DEB729013A01621BB5
:100AC000730B840B950B29893A894B895C892A1908
:100AD0003B094C095D09298B3A8B4B8B5C8B9B0145
:100AE000AC0169897A898B899C8928D0E418F5083A
:100AF00006091709A801970152D02A0D3B1D4C1D6C
:100B00005D1DCA01B901DF91CF911F910F91FF9037
:100B1000EF90DF90CF90BF90AF907F906F905F90FD
:100B20004F900895089562DCFDDFEDDACFE6D3E063
:100B300026DB2097E9F3D3DDFBCF0895DB018F930C
:100B40009F9349D0BF91AF91A29F800D911DA39F0C
:100B5000900DB29F900D11240895A1E21A2EAA1BA8
:100B6000BB1BFD010DC0AA1FBB1FEE1FFF1FA2175D
:100B7000B307E407F50720F0A21BB30BE40BF50B5A
:100B8000661F771F881F991F1A9469F760957095E3
:100B9000809590959B01AC01BD01CF010895052E74
:100BA00097FB16F400940FD057FD05D0D6DF07FC55
:100BB00002D046F408C050954095309521953F4F9E
:100BC0004F4F5F4F089590958095709561957F4F39
:100BD0008F4F9F4F08950FD0A59F900DB49F900DFC
:100BE000A49F800D911D11240895EE0FFF1F059005
:100BF000F491E02D0994A29FB001B39FC001A39F7F
:100C0000700D811D1124911DB29F700D811D112445
:080C1000911D0895F894FFCF37
:100C180001000000090007000B000D009001000012
:100C28000100000000BE03250542035B034D039D40
:020C38000300B7
:00000001FF
