:100000005CC00000DEC1000009C200007BC000002F
:1000100079C0000077C0000075C0000073C0000008
:1000200071C000006FC000006DC000006BC0000018
:1000300069C0000067C0000065C0000063C0000028
:100040001AC200005FC0000034C5000064C5000093
:1000500059C0000057C0000055C0000053C0000048
:1000600051C000004FC00000000000080002010065
:100070000003040700000000000000000102040863
:100080001020408001020408102001020408102002
:10009000040404040404040402020202020203032E
:1000A0000303030300000000250028002B000000CC
:1000B0000000240027002A00B90511241FBECFEF3D
:1000C000D8E0DEBFCDBF11E0A0E0B1E0ECEAFFE098
:1000D00002C005900D92A233B107D9F721E0A2E347
:1000E000B1E001C01D92A83EB207E1F710E0CAEBF3
:1000F000D0E003C02297FE0144D7C83BD107D1F717
:10010000DCD652C77DCF4A9B03C0189903C00EC0EE
:1001100018990CC08091360190913701A091380157
:10012000B09139010196A11DB11D0BC0809136011E
:1001300090913701A0913801B09139010197A1093F
:10014000B1098093360190933701A0933801B093A1
:100150003901409136015091370160913801709119
:1001600039018091320190913301A0913401B09115
:10017000350184179507A607B70714F410920401F8
:10018000089561E080910B01E6D261E08091090160
:10019000E2D261E080910D01DED260E08091070142
:1001A000DAD260E080910501D6D241E050E063E808
:1001B00070E080E0E6D026E040E855E260E070E0E4
:1001C0008BE491E016D462E171E08BE491E06BD5B1
:1001D00010923601109237011092380110923901B5
:1001E00084E690E0A0E0B0E0809332019093330188
:1001F000A0933401B09335010895CF93DF93EC01C0
:1002000061E080910F01E0D2BE0180910D011DD20D
:1002100060E080910B01D8D261E080910901D4D2D5
:1002200081E080930401DF91CF910895CF93DF9314
:10023000EC0161E080910F01C7D2BE0180910D01F8
:1002400004D261E080910B01BFD260E0809109018E
:10025000BBD281E080930401DF91CF91089560E0EB
:1002600080910F01B1D260E070E080910D01EDD17D
:1002700060E080910B01A8D260E080910901A4D2D6
:100280001092040108959C01CB0140910401442384
:1002900041F02130310509F4B0CF2230310511F49D
:1002A000C5CFDDCF0895AF92BF92CF92DF92EF928C
:1002B000FF920F931F9380913C01AAD190933B0131
:1002C00080933A014AE050E0BC018BE491E099D57B
:1002D00060E271E08BE491E0E6D460913A017091C4
:1002E0003B01882777FD8095982F1F921F921F92C0
:1002F0002FEF2F93AA24A394BB24BA94CB2CDB2CEE
:10030000EE24EA9413E0F12E00E010E020E030E06B
:10031000A9018DD570933B0160933A014AE050E00A
:100320008BE491E06ED564EF71E080E090E010D155
:1003300060913A0170913B0180910D0186D16091ED
:100340003A0170913B010F900F900F900F902AE0AF
:1003500030E040E050E0161617061CF481E090E013
:1003600002C082E090E08FDF64EF71E080E090E017
:100370001F910F91FF90EF90DF90CF90BF90AF90C3
:10038000E7C08230E8F4E82FF0E0EE0FFF1FE25CF8
:10039000FE4F71836083813041F0809169008C7FD2
:1003A000842B80936900E89A089580916900440F36
:1003B000551F440F551F837F842B80936900E99A52
:1003C00008951F920F920FB60F9211242F933F930F
:1003D0004F935F936F937F938F939F93AF93BF934D
:1003E000EF93FF9380913E0190913F01892B29F07B
:1003F000E0913E01F0913F010995FF91EF91BF918E
:10040000AF919F918F917F916F915F914F913F91AC
:100410002F910F900FBE0F901F9018951F920F9263
:100420000FB60F9211242F933F934F935F936F93C7
:100430007F938F939F93AF93BF93EF93FF9380919D
:10044000400190914101892B29F0E0914001F09108
:1004500041010995FF91EF91BF91AF919F918F91CC
:100460007F916F915F914F913F912F910F900FBEB0
:100470000F901F9018951F920F920FB60F92112494
:100480002F933F938F939F93AF93BF93809143019B
:1004900090914401A0914501B091460130914201F3
:1004A00023E0230F2D3720F40196A11DB11D05C0B7
:1004B00026E8230F0296A11DB11D209342018093CF
:1004C000430190934401A0934501B093460180916C
:1004D000470190914801A0914901B0914A010196CC
:1004E000A11DB11D8093470190934801A09349013C
:1004F000B0934A01BF91AF919F918F913F912F91FE
:100500000F900FBE0F901F9018953FB7F8948091F1
:10051000470190914801A0914901B0914A0126B547
:10052000A89B05C02F3F19F00196A11DB11D3FBF2B
:100530006627782F892F9A2F620F711D811D911DBB
:1005400042E0660F771F881F991F4A95D1F70895DB
:10055000CF92DF92EF92FF92CF93DF936B017C01FA
:10056000D4DFEB01C114D104E104F10479F0AFD47C
:10057000CCDF6C1B7D0B683E7340A0F381E0C81A92
:10058000D108E108F108C851DC4FECCFDF91CF91E1
:10059000FF90EF90DF90CF900895789484B58260BB
:1005A00084BD84B5816084BD85B5826085BD85B517
:1005B000816085BDEEE6F0E0808181608083E1E8C6
:1005C000F0E01082808182608083808181608083FE
:1005D000E0E8F0E0808181608083E1EBF0E0808101
:1005E00084608083E0EBF0E0808181608083EAE7D3
:1005F000F0E080818460808380818260808380815C
:10060000816080838081806880831092C10008951A
:100610008E3008F08E5087702091110190E4299F50
:1006200090011124822B80937C0080917A00806459
:1006300080937A0080917A0086FDFCCF80917800CB
:100640002091790090E0922B08951F93CF93DF9330
:10065000182FEB0161E07FD0209711F460E004C017
:10066000CF3FD10531F461E0812FDF91CF911F9110
:10067000ABC0E12FF0E0E859FF4FE491E330F9F02F
:1006800048F4E130B9F0E230A1F584B5806284BD70
:10069000C8BD34C0E730E9F0E83019F1E43049F57D
:1006A00080918000806280938000D0938B00C09303
:1006B0008A0024C084B5806884BDC7BD1FC08091F6
:1006C0008000806880938000D0938900C093880068
:1006D00015C08091B00080688093B000C093B300D3
:1006E0000DC08091B00080628093B000C093B400D0
:1006F00005C0C038D1050CF0B6CFB0CFDF91CF9197
:100700001F910895833081F028F4813099F0823070
:10071000A1F008958730A9F08830B9F08430D1F481
:10072000809180008F7D03C0809180008F778093BF
:100730008000089584B58F7702C084B58F7D84BD15
:1007400008958091B0008F7703C08091B0008F7DB5
:100750008093B0000895CF93DF9390E0FC01E458BC
:10076000FF4F2491FC01E057FF4F8491882349F10A
:1007700090E0880F991FFC01E255FF4FA591B491BD
:100780008C559F4FFC01C591D4919FB7611108C052
:10079000F8948C91209582238C93888182230AC0BF
:1007A000623051F4F8948C91322F309583238C93DE
:1007B0008881822B888304C0F8948C91822B8C933F
:1007C0009FBFDF91CF9108950F931F93CF93DF9336
:1007D0001F92CDB7DEB7282F30E0F901E859FF4F5F
:1007E0008491F901E458FF4F1491F901E057FF4F4C
:1007F00004910023C1F0882319F0698383DF6981A4
:10080000E02FF0E0EE0FFF1FEC55FF4FA591B491E4
:100810009FB7F8948C91611103C01095812301C09A
:10082000812B8C939FBF0F90DF91CF911F910F91E0
:100830000895FC01818D228D90E0805C9F4F821B8A
:1008400091098F7399270895FC01918D828D9817D6
:1008500031F0828DE80FF11D858D90E008958FEFC6
:100860009FEF0895FC01918D828D981761F0828D24
:10087000DF01A80FB11D5D968C91928D9F5F9F73D4
:10088000928F90E008958FEF9FEF089580EB95E0B1
:10089000892B41F080E090E0892B21F061D181111A
:1008A0000C9400000895FC01848DDF01A80FB11D98
:1008B000A35ABF4F2C91848D90E001968F73992796
:1008C000848FA689B7892C93A089B1898C91806483
:1008D0008C93938D848D981306C00288F389E02D44
:1008E00080818F7D80830895CF93DF93EC01888D85
:1008F0008823C1F0EA89FB89808185FD05C0A8892C
:10090000B9898C9186FD0EC00FB607FCF5CF8081AA
:1009100085FFF2CFA889B9898C9185FFEDCFCE01F3
:10092000C2DFE8CFDF91CF910895CF92DF92FF929F
:100930000F931F93CF93DF931F92CDB7DEB76C0158
:10094000DC015B969C915B975C968C915C9798130D
:1009500007C05096ED91FC915197808185FD31C083
:10096000F601038D10E00F5F1F4F0F731127F02E5C
:10097000F601848DF81210C00FB607FCF9CFD6012E
:100980005096ED91FC915197808185FFF1CFC60182
:10099000698389DF6981ECCF838DE80FF11DE35A0C
:1009A000FF4F6083D6015B960C935B975296ED9157
:1009B000FC91539780818062808381E058968C936C
:1009C0000DC0D6015696ED91FC91579760835096D5
:1009D000ED91FC91519780818064808381E090E06B
:1009E0000F90DF91CF911F910F91FF90DF90CF90EB
:1009F0000895BF92CF92DF92EF92FF92CF93DF9351
:100A0000EC016A017B01B22EE889F98982E08083DA
:100A1000411581EE58076105710599F060E079E0B4
:100A20008DE390E0A701960162D22150310941097E
:100A300051095695479537952795211580E1380737
:100A400090F0E889F989108260E874E88EE190E01E
:100A5000A70196014CD221503109410951095695FF
:100A6000479537952795EC85FD853083EE85FF8585
:100A70002083188EEC89FD89B082EA89FB89808108
:100A800080618083EA89FB89808188608083EA892C
:100A9000FB89808180688083EA89FB8980818F7DE2
:100AA0008083DF91CF91FF90EF90DF90CF90BF9048
:100AB00008951F920F920FB60F9211242F938F93C8
:100AC0009F93EF93FF93E0915B01F0915C01808134
:100AD000E0916101F091620182FD12C090818091EC
:100AE00064018F5F8F7320916501821751F0E0914F
:100AF0006401F0E0E55BFE4F958F8093640101C0D7
:100B00008081FF91EF919F918F912F910F900FBE58
:100B10000F901F9018951F920F920FB60F921124ED
:100B20002F933F934F935F936F937F938F939F93F5
:100B3000AF93BF93EF93FF938BE491E0B4DEFF910B
:100B4000EF91BF91AF919F918F917F916F915F9145
:100B50004F913F912F910F900FBE0F901F901895BE
:100B60008BE491E066DE21E0892B09F420E0822FFE
:100B7000089510924E0110924D0188EE93E0A0E08E
:100B8000B0E080934F0190935001A0935101B09336
:100B9000520186E291E090934C0180934B0185ECE9
:100BA00090E0909358018093570184EC90E09093EB
:100BB0005A018093590180EC90E090935C018093FE
:100BC0005B0181EC90E090935E0180935D0182EC8B
:100BD00090E09093600180935F0186EC90E09093A9
:100BE000620180936101109264011092650110927C
:100BF0006601109267010895CF92DF92EF92FF9203
:100C00000F931F93CF93DF936C017A01EB01E60EF4
:100C1000F71E00E010E0CE15DF0561F06991D60106
:100C2000ED91FC910190F081E02DC6010995080F2E
:100C3000191FF1CFC801DF91CF911F910F91FF9044
:100C4000EF90DF90CF9008956115710581F0DB0181
:100C50000D900020E9F7AD0141505109461B570B9B
:100C6000DC01ED91FC910280F381E02D099480E09C
:100C700090E00895DC01ED91FC910190F081E02D70
:100C800009940F931F93CF93DF93EC016DE0F2DF94
:100C90008C016AE0CE01EEDF800F911FDF91CF91D2
:100CA0001F910F9108950F931F93CF93DF93EC0142
:100CB000CBDF8C01CE01E5DF800F911FDF91CF915B
:100CC0001F910F9108958F929F92AF92BF92CF92F2
:100CD000DF92EF92FF920F931F93CF93DF93CDB7E5
:100CE000DEB7A1970FB6F894DEBF0FBECDBF7C0173
:100CF000C42EE52FCB01D22E19A221E02D1510F024
:100D00002AE0D22E8E010F5D1F4F8D2C912CA12C2D
:100D1000B12C6C2D7E2FA5019401E9D08C2DD29E93
:100D200080191124015011098A3014F4805D01C02A
:100D3000895CF8018083211531054105510521F0B9
:100D4000C22EE32FCA01E5CFB801C7017DDFA1960E
:100D50000FB6F894DEBF0FBECDBFDF91CF911F91CC
:100D60000F91FF90EF90DF90CF90BF90AF909F904A
:100D70008F900895CF92DF92EF92FF920F931F937F
:100D8000CF93DF93EC016A017B012115310579F4E2
:100D9000E881F9810190F081E02D642FDF91CF91FE
:100DA0001F910F91FF90EF90DF90CF9009942A3020
:100DB0003105D9F477FF18C06DE25CDF8C01442760
:100DC0005527BA014C195D096E097F092AE0CE0149
:100DD0007ADF800F911FDF91CF911F910F91FF90CC
:100DE000EF90DF90CF9008952AE0B701A601CE01E1
:100DF000DF91CF911F910F91FF90EF90DF90CF90F7
:100E000062CF0F931F93CF93DF93EC019A01AB0155
:100E1000662757FD6095762FADDF8C01CE0131DF5F
:100E2000800F911FDF91CF911F910F9108954F92E5
:100E30005F926F927F92AF92BF92CF92DF92EF92CA
:100E4000FF920F931F93CF93DF93CDB7DEB72901A6
:100E50003A01621B730B840B950B29893A894B89E4
:100E60005C892A193B094C095D09298B3A8B4B8B0C
:100E70005C8B9B01AC0169897A898B899C8928D01C
:100E8000E418F50806091709A801970152D02A0DA0
:100E90003B1D4C1D5D1DCA01B901DF91CF911F9112
:100EA0000F91FF90EF90DF90CF90BF90AF907F9029
:100EB0006F905F904F90089508956FDBFDDF61D9CB
:100EC000C6E4D4E0F0D92097E9F3E0DCFBCF089545
:100ED000DB018F939F9349D0BF91AF91A29F800D6B
:100EE000911DA39F900DB29F900D11240895A1E232
:100EF0001A2EAA1BBB1BFD010DC0AA1FBB1FEE1F94
:100F0000FF1FA217B307E407F50720F0A21BB30BDE
:100F1000E40BF50B661F771F881F991F1A9469F75A
:100F200060957095809590959B01AC01BD01CF01B6
:100F30000895052E97FB16F400940FD057FD05D0A9
:100F4000D6DF07FC02D046F408C050954095309596
:100F500021953F4F4F4F5F4F089590958095709525
:100F600061957F4F8F4F9F4F08950FD0A59F900D94
:100F7000B49F900DA49F800D911D11240895EE0F34
:100F8000FF1F0590F491E02D0994A29FB001B39F3B
:100F9000C001A39F700D811D1124911DB29F700D82
:0C0FA000811D1124911D0895F894FFCFCD
:100FAC00010000000108000200090007000B000D01
:100FBC000001456E636F64657220546573743A006A
:100FCC002000000000009504FC05190432042404E0
:020FDC0074049B
:00000001FF
