:1000000061C00000B3C60000DEC6000083C000006F
:1000100081C000007FC000007DC000007BC00000E8
:1000200079C0000077C0000075C0000073C00000F8
:1000300071C000006FC000006DC000006BC0000008
:10004000EFC6000067C0000065C0000063C000008C
:1000500061C000005FC000005DC000005BC0000028
:1000600059C0000057C00000000000080002010055
:100070000003040700000000000000000102040863
:100080001020408001020408102001020408102002
:10009000040404040404040402020202020203032E
:1000A00003030303000000002300260029000000D2
:1000B0000000250028002B0000000000240027007D
:1000C0002A00880611241FBECFEFD8E0DEBFCDBFC7
:1000D00011E0A0E0B1E0E4E7F9E102C005900D9283
:1000E000AC30B107D9F721E0ACE0B1E001C01D921E
:1000F000AA33B207E1F710E0C4ECD0E004C02297C5
:10010000FE010E946809C23CD107C9F70E94030999
:100110000C94B80C75CFDC01ED91FD918081ED91CF
:10012000FD919081ED91FD916C9163708E2309F0AA
:1001300064609F2309F06860E8EAF0E0E60FF11DD3
:10014000659565956D936D917D918D919D910994C6
:1001500023C01AC012C016C010C01EC009C014C0EF
:1001600013C006C019C009C00DC007C00DC014C01F
:1001700062507040804090400BC0615070408040A1
:10018000904006C06E5F01C06F5F7F4F8F4F9F4FE3
:100190009E938E937E936E93089580910E0190911D
:1001A0000F01B9CF80910C0190910D01B4CFCF9385
:1001B000DF93EC018B85823020F4F894CE01ABDF25
:1001C00001C0F8946F81788589859A857894DF914C
:1001D000CF910895823061F08330B1F470930F01B4
:1001E00060930E0141E050E06DEC70E081E009C0E9
:1001F00070930D0160930C0141E050E062ED70E0FE
:1002000080E094D581E0089580E008958F929F92D8
:10021000AF92BF92CF92DF92EF92FF920F931F9314
:10022000CF93DF93EC01862F2A836B834C8361E0AD
:1002300036D761E08C8133D761E08A8130D78CE09A
:1002400090E0ECD76C0162E0802F29D762E08E2D20
:1002500026D7202F30E0F901E057FF4FE491F0E07E
:10026000EE0FFF1FEC55FF4F85919491D6018D93B2
:100270009C93F901E458FF4F2491F60124832E2D1D
:1002800030E0F901E057FF4FE491F0E0EE0FFF1F7F
:10029000EC55FF4F85919491D60113969C938E93C4
:1002A0001297F901E458FF4F2491F6012583178234
:1002B00010861186128680ED97E008D6D601ED9162
:1002C000FC911197908114968C91982381E009F408
:1002D00080E0D6011296ED91FC91139790811596CE
:1002E0002C91922309F08260F6018683B601802F5B
:1002F00071DFD6011B968C93B6018E2D6BDFF60154
:10030000238590E0820F911D8387DB8ACA8A198A30
:1003100082E38C8B8EE18D8BC60149DF0E947A0AC5
:1003200069877A878B879C871D861E861F86188A19
:100330006D837E838F83988789E390E06FD74C012C
:100340009E012B5F3F4FAE01435F5F4FBE01675F72
:100350007F4F1F921F928DE38F938CEC8F938F931F
:100360008DEC8F938DECA82E8CECB82E8CE4C82EDF
:100370008EE3D82E1DECE12E1CECF12E0CEC1DE3CF
:10038000C401F3D39982888262E370E0C40197D2FA
:100390008C88912C6FEF70E068197909882777FDB8
:1003A0008095982F0E947A0A6B017C01B4016F5FDF
:1003B0007109882777FD8095982F0E947A0AAB01F2
:1003C000BC019701860188819981C2D20F900F905C
:1003D0000F900F900F900F9061E070E088819981ED
:1003E000DF91CF911F910F91FF90EF90DF90CF9011
:1003F000BF90AF909F908F906AC3FC01658B08956A
:100400006F3F21F0FC01648B81E0089580E0089546
:10041000CF93DF93EC01882777FD8095982F0E947A
:100420007A0A6D837E838F839887DF91CF910895B9
:10043000CF93DF93EC0120E030E0A9016D857E854C
:100440008F859889BDD787FF05C060E08B8160D616
:1004500061E004C061E08B815BD660E08C81DF915C
:10046000CF9156C6CF92DF92EF92FF92CF93DF9358
:10047000EC018A899B899BDE0E947A0A69877A87C8
:100480008B879C87888199815CD0CD84DE84EF84C2
:10049000F88820E030E0A901C701B6010E942A0BCC
:1004A000181624F0F7FAF094F7F8F0946C8970E0DD
:1004B00080E090E00E947A0A9B01AC01C701B6017E
:1004C0001BD7EAD7698B29853A854B855C856D8179
:1004D0007E818F8198850FD76B017C0120E030E011
:1004E000A9010E942A0B181624F0F7FAF094F7F8E5
:1004F000F0946D8970E080E090E0FCD79B01AC0146
:10050000C701B6015DD72881398187FF0AC060E045
:1005100070E0C901DCD21D861E861F86188A198AE2
:1005200004C061E070E0C901D2D2CE0181DF6989E7
:1005300070E08A81DF91CF91FF90EF90DF90CF90B4
:1005400028C52F923F924F925F926F927F928F9227
:100550009F92AF92BF92CF92DF92EF92FF920F9352
:100560001F93CF93DF93CDB7DEB72B970FB6F894D9
:10057000DEBF0FBECDBF9B878A87DC01D896BC91BA
:10058000B983B11102C01982D7C094D46A837B8326
:100590008C839D83EA85FB8580A191A1A2A1B3A153
:1005A0004A815B816C817D81481B590B6A0B7B0BF7
:1005B00084A595A5A6A5B7A5481759076A077B077F
:1005C00010F3028CF38DE02D80809180A280B380A7
:1005D000AA85BB855E96ED91FC915F97A50194017C
:1005E000608171818281938186D62B013C01EA85ED
:1005F000FB8520893189428953890E942E0BAA8567
:10060000BB8594962D913D914D915C91979774D6B1
:100610006B017C01EA85FB8564A375A386A397A380
:1006200024A835A806A917A99101A8010E942A0BA0
:1006300018161CF4C101D80117C0AA85BB85D09635
:100640008D919D910D90BC91A02D8E839F83A88745
:10065000B9879C01AD01C701B601B2D687FF0AC0B8
:100660008E819F81A885B985EA85FB8584A395A3A2
:10067000A6A3B7A3AA85BB851C962D913D914D914C
:100680005C911F97C301B201E9D7EA85FB8524A1DC
:1006900035A146A157A130D66B017C01AA85BB8547
:1006A00098962D913D914D915C919B97C501B40118
:1006B00022D6EA85FB852489358946895789CED794
:1006C0009B01AC01C701B60116D66B017C019101FB
:1006D000A801C0D71816B4F0AA85BB85D0962C9077
:1006E000D097D1963C90D197D2960C91D297D39631
:1006F0001C919101A801B601C70162D687FD02C015
:1007000016018701AA85BB855C96ED91FC915D97EA
:10071000C101D80180839183A283B383EA85FB85DD
:1007200080A691A6A2A6B3A68A819B81AC81BD8139
:1007300080A391A3A2A3B3A389812B960FB6F894AB
:10074000DEBF0FBECDBFDF91CF911F910F91FF9004
:10075000EF90DF90CF90BF90AF909F908F907F9061
:100760006F905F904F903F902F9008952F923F92FF
:100770004F925F926F927F928F929F92AF92BF92B1
:10078000CF92DF92EF92FF920F931F93CF93DF935D
:1007900000D000D0CDB7DEB71C012A013B014801D3
:1007A000590120E030E0A901C301B20109D687FD5B
:1007B0006FC020E030E0A901C501B40101D687FD7A
:1007C00067C020E030E0A901C701B601F9D587FD77
:1007D0005FC0F1014082518262827382848295827D
:1007E000A682B782C086D186E286F38664A575A507
:1007F00086A597A57DD620E030E04AE754E4E4D50D
:1008000069837A838B839C83F1014486558666864F
:1008100077869B01AC01C501B40120D74B015C0177
:10082000F101608B718B828B938B29813A814B8193
:100830005C81C701B601C8D56B017C01F101648BF5
:10084000758B868B978B808D918D019709F5A30110
:10085000920160E070E0CB014ED5F10164877587AD
:1008600086879787A501940160E070E0CB0143D5AE
:10087000F101608B718B828B938BA701960160E0F5
:1008800070E0CB0138D5F101648B758B868B978B2B
:100890000F900F900F900F90DF91CF911F910F91BC
:1008A000FF90EF90DF90CF90BF90AF909F908F9090
:1008B0007F906F905F904F903F902F9008958F9210
:1008C0009F92AF92BF92CF92DF92EF92FF92CF931F
:1008D000DF93EC011616170684F56B01EE24D7FCA6
:1008E000E094FE2CC701B60105D64B015C016CA556
:1008F0007DA58EA59FA5FCD59B01AC01C501B401CA
:1009000063D54B015C019B01AC01688979898A89B7
:100910009B89A4D6688B798B8A8B9B8BA5019401CC
:100920006C897D898E899F894FD56C8B7D8B8E8B51
:100930009F8BCCA6DDA6EEA6FFA6DF91CF91FF9000
:10094000EF90DF90CF90BF90AF909F908F900895E1
:100950002F923F924F925F926F927F928F929F92CF
:10096000AF92BF92CF92DF92EF92FF920F931F93BD
:10097000CF93DF93EC016A017B0148015901A90182
:100980009801C701B60166D687FF4AC0C8AAD9AA8E
:10099000EAAAFBAA8CAA9DAAAEAABFAA88AD882300
:1009A00009F43EC02C8C3D8CF10140805180628066
:1009B0007380A5019401C301B2014CD6181634F41A
:1009C000F10180829182A282B3820CC0A7019601BC
:1009D000C301B201F5D487FF05C0F101C082D18205
:1009E000E282F3828CA09DA0AEA0BFA0CCA8DDA81F
:1009F000EEA8FFA8A7019601C501B4012BD61816D1
:100A00005CF0C8A8D9A8EAA8FBA8A7019601C5016F
:100A1000B401D6D487FF04C0CCA2DDA2EEA2FFA20F
:100A2000DF91CF911F910F91FF90EF90DF90CF90CA
:100A3000BF90AF909F908F907F906F905F904F90FE
:100A40003F902F9008958F929F92AF92BF92CF9236
:100A5000DF92EF92FF92CF93DF93EC01EC8DFD8D4F
:100A6000C080D180E280F380CCA2DDA2EEA2FFA202
:100A7000EA8DFB8D80819181A281B38188A799A79E
:100A8000AAA7BBA78CA89DA8AEA8BFA8A501940142
:100A9000C701B601DFD518165CF088A899A8AAA8E6
:100AA000BBA8A5019401C701B6018AD487FF04C081
:100AB0008CA29DA2AEA2BFA2DF91CF91FF90EF903A
:100AC000DF90CF90BF90AF909F908F9008951F932D
:100AD000CF93DF93EC0111E06130710509F010E074
:100AE00088AD91E08927181302C0CE01ACDF18AFA2
:100AF000DF91CF911F9108950F931F93CF93DF93B1
:100B0000EC018B0188AD882349F1888D998D681798
:100B1000790721F12C853D854E855F8560E070E089
:100B2000CB01E9D36C877D878E879F872889398998
:100B30004A895B8960E070E0CB01DDD3688B798BFB
:100B40008A8B9B8B2C893D894E895F8960E070E0A0
:100B5000CB01D1D36C8B7D8B8E8B9F8B198F088FA4
:100B6000DF91CF911F910F9108954F925F926F92F5
:100B70007F928F929F92AF92BF92CF92DF92EF922D
:100B8000FF920F931F93CF93DF9300D000D0CDB788
:100B9000DEB74C0127013801A982BA82CB82DC8200
:100BA000FC01558F448F738F628F378F268F10AE65
:100BB00010AA11AA12AA13AA80E090E0AFE7B3E44A
:100BC00084AB95ABA6ABB7AB84E690E0A0E0B0E019
:100BD00084A795A7A6A7B7A76B8D7C8DC4018CDFD2
:100BE000CF88D88CE98CFA8C09811A812B813C81C1
:100BF000B301A201C401BADD5DD1F40144A455A43E
:100C000066A477A4641975098609970960A371A37E
:100C100082A393A30F900F900F900F90DF91CF912D
:100C20001F910F91FF90EF90DF90CF90BF90AF900A
:100C30009F908F907F906F905F904F900895CF928C
:100C4000DF92EF92FF920F931F93C12CD12C76016C
:100C50000DEC1CEC2CE43DE34DEC5CEC6CEC7DE32A
:100C6000809111019091120181DD62E381E191E0B7
:100C7000C7DB64E670E081E191E01F910F91FF9086
:100C8000EF90DF90CF90B9CBAF92BF92CF92DF922F
:100C9000EF92FF920F931F9380E05ED19093280113
:100CA00080932701BC01882777FD8095982F1F929C
:100CB0001F922FE02F9320EA2F93A12CB12C6501D6
:100CC000EE24EA9413E0F12E00E010E020E030E0A2
:100CD000A90153D2709328016093270181E191E02B
:100CE000C1DB609127017091280181E191E090DBE7
:100CF00081E0809310010F900F900F900F901F9143
:100D00000F91FF90EF90DF90CF90BF90AF9008953C
:100D1000EF920F9332E0E32E03E02BE049E067E02F
:100D200081E191E073DA0F91EF9008958230E8F459
:100D3000E82FF0E0EE0FFF1FE75DFE4F7183608349
:100D4000813041F0809169008C7F842B8093690011
:100D5000E89A089580916900440F551F440F551F6C
:100D6000837F842B80936900E99A08951F920F92E4
:100D70000FB60F9211242F933F934F935F936F936E
:100D80007F938F939F93AF93BF93EF93FF93809144
:100D9000290190912A01892B29F0E0912901F091F4
:100DA0002A010995FF91EF91BF91AF919F918F918A
:100DB0007F916F915F914F913F912F910F900FBE57
:100DC0000F901F9018951F920F920FB60F9211243B
:100DD0002F933F934F935F936F937F938F939F9343
:100DE000AF93BF93EF93FF9380912B0190912C01D0
:100DF000892B29F0E0912B01F0912C010995FF91AD
:100E0000EF91BF91AF919F918F917F916F915F9182
:100E10004F913F912F910F900FBE0F901F901895FB
:100E20001F920F920FB60F9211242F933F938F931F
:100E30009F93AF93BF9380912E0190912F01A0912A
:100E40003001B091310130912D0123E0230F2D3776
:100E500020F40196A11DB11D05C026E8230F0296BE
:100E6000A11DB11D20932D0180932E0190932F0180
:100E7000A0933001B0933101809132019091330100
:100E8000A0913401B09135010196A11DB11D80934F
:100E9000320190933301A0933401B0933501BF9197
:100EA000AF919F918F913F912F910F900FBE0F9017
:100EB0001F9018952FB7F89460912E0170912F0113
:100EC00080913001909131012FBF089501970097D3
:100ED00039F0880F991F880F991F02970197F1F732
:100EE0000895789484B5826084BD84B5816084BDA2
:100EF00085B5826085BD85B5816085BDEEE6F0E093
:100F0000808181608083E1E8F0E0108280818260EE
:100F10008083808181608083E0E8F0E0808181606F
:100F20008083E1EBF0E0808184608083E0EBF0E09F
:100F3000808181608083EAE7F0E080818460808343
:100F400080818260808380818160808380818068ED
:100F500080831092C10008958E3008F08E50877003
:100F600020910A0190E4299F90011124822B809303
:100F70007C0080917A00806480937A0080917A006E
:100F800086FDFCCF809178002091790090E0922B33
:100F900008951F93CF93DF93182FEB0161E07FD06B
:100FA000209711F460E004C0CF3FD10531F461E037
:100FB000812FDF91CF911F91ABC0E12FF0E0E85975
:100FC000FF4FE491E330F9F048F4E130B9F0E2305A
:100FD000A1F584B5806284BDC8BD34C0E730E9F0B6
:100FE000E83019F1E43049F5809180008062809307
:100FF0008000D0938B00C0938A0024C084B58068A1
:1010000084BDC7BD1FC08091800080688093800030
:10101000D0938900C093880015C08091B00080688B
:101020008093B000C093B3000DC08091B000806287
:101030008093B000C093B40005C0C038D1050CF057
:10104000B6CFB0CFDF91CF911F910895833081F05B
:1010500028F4813099F08230A1F008958730A9F00A
:101060008830B9F08430D1F4809180008F7D03C046
:10107000809180008F7780938000089584B58F776A
:1010800002C084B58F7D84BD08958091B0008F77B4
:1010900003C08091B0008F7D8093B0000895CF93FE
:1010A000DF9390E0FC01E458FF4F2491FC01E057EE
:1010B000FF4F8491882349F190E0880F991FFC012C
:1010C000E854FF4FA591B49182559F4FFC01C59103
:1010D000D4919FB7611108C0F8948C912095822318
:1010E0008C93888182230AC0623051F4F8948C91E9
:1010F000322F309583238C938881822B888304C080
:10110000F8948C91822B8C939FBFDF91CF9108959F
:101110000F931F93CF93DF931F92CDB7DEB7282F86
:1011200030E0F901E859FF4F8491F901E458FF4F8D
:101130001491F901E057FF4F04910023C1F0882377
:1011400019F0698383DF6981E02FF0E0EE0FFF1F64
:10115000E255FF4FA591B4919FB7F8948C9161111E
:1011600003C01095812301C0812B8C939FBF0F90EA
:10117000DF91CF911F910F9108954F925F926F92DF
:101180007F92AF92BF92CF92DF92EF92FF920F9336
:101190001F93CF93DF93CDB7DEB729013A01621BCE
:1011A000730B840B950B29893A894B895C892A1921
:1011B0003B094C095D09298B3A8B4B8B5C8B9B015E
:1011C000AC0169897A898B899C8929D0E418F50852
:1011D00006091709A801970131D02A0D3B1D4C1DA6
:1011E0005D1DCA01B901DF91CF911F910F91FF9051
:1011F000EF90DF90CF90BF90AF907F906F905F9017
:101200004F90089508956DDEFDDF19DDC0E0D0E058
:101210003BDD2097E9F30E940000FACF82C2DB0198
:101220008F939F9327D0BF91AF91A29F800D911D67
:10123000A39F900DB29F900D11240895052E97FB4A
:1012400016F400940FD057FD05D01ED007FC02D035
:1012500046F408C050954095309521953F4F4F4F2B
:101260005F4F089590958095709561957F4F8F4F52
:101270009F4F089531D0A59F900DB49F900DA49FCE
:10128000800D911D11240895A1E21A2EAA1BBB1BEB
:10129000FD010DC0AA1FBB1FEE1FFF1FA217B30742
:1012A000E407F50720F0A21BB30BE40BF50B661F58
:1012B000771F881F991F1A9469F76095709580951C
:1012C00090959B01AC01BD01CF010895EE0FFF1F6A
:1012D0000590F491E02D0994A29FB001B39FC00145
:1012E000A39F700D811D1124911DB29F700D811D52
:1012F0001124911D08955058BB27AA270ED070C104
:1013000061D130F066D120F031F49F3F11F41EF42A
:1013100056C10EF4E095E7FB4CC1E92F72D180F382
:10132000BA17620773078407950718F071F49EF5E2
:101330008AC10EF4E0950B2EBA2FA02D0B01B90136
:1013400090010C01CA01A0011124FF27591B99F03B
:10135000593F50F4503E68F11A16F040A22F232F47
:10136000342F4427585FF3CF469537952795A79597
:10137000F0405395C9F77EF41F16BA0B620B730B3E
:10138000840BBAF09150A1F0FF0FBB1F661F771FAF
:10139000881FC2F70EC0BA0F621F731F841F48F464
:1013A000879577956795B795F7959E3F08F0B3CFEA
:1013B0009395880F08F09927EE0F979587950895D4
:1013C000D4D008F481E008950CD00AC102D140F0D5
:1013D000F9D030F021F45F3F19F0EBC0511134C166
:1013E000EEC00FD198F39923C9F35523B1F3951BA0
:1013F000550BBB27AA2762177307840738F09F5F36
:101400005F4F220F331F441FAA1FA9F333D00E2EA4
:101410003AF0E0E830D091505040E695001CCAF711
:1014200029D0FE2F27D0660F771F881FBB1F2617D6
:1014300037074807AB07B0E809F0BB0B802DBF01A9
:10144000FF2793585F4F2AF09E3F510568F0B1C0C7
:10145000FBC05F3FECF3983EDCF38695779567958C
:10146000B795F7959F5FC9F7880F911D969587955A
:1014700097F90895E1E0660F771F881FBB1F621779
:1014800073078407BA0720F0621B730B840BBA0B37
:10149000EE1F88F7E0950895BCD088F09F5790F034
:1014A000B92F9927B751A0F0D1F0660F771F881F89
:1014B000991F1AF0BA95C9F712C0B13081F0C3D0A4
:1014C000B1E00895C0C0672F782F8827B85F39F042
:1014D000B93FCCF3869577956795B395D9F73EF4E8
:1014E00090958095709561957F4F8F4F9F4F089590
:1014F000E89409C097FB3EF49095809570956195AE
:101500007F4F8F4F9F4F9923A9F0F92F96E9BB2763
:101510009395F695879577956795B795F111F8CFDF
:10152000FAF4BB0F11F460FF1BC06F5F7F4F8F4F4A
:101530009F4F16C0882311F096E911C0772321F040
:101540009EE8872F762F05C0662371F096E8862FD8
:1015500070E060E02AF09A95660F771F881FDAF72F
:10156000880F9695879597F90895990F0008550F5C
:10157000AA0BE0E8FEEF16161706E807F907C0F019
:1015800012161306E407F50798F0621B730B840B21
:10159000950B39F40A2661F0232B242B252B21F4FB
:1015A00008950A2609F4A140A6958FEF811D811D9B
:1015B000089597F99F6780E870E060E008959FEFD5
:1015C00080EC089500240A941616170618060906DA
:1015D000089500240A9412161306140605060895A9
:1015E000092E0394000C11F4882352F0BB0F40F431
:1015F000BF2B11F460FF04C06F5F7F4F8F4F9F4F71
:10160000089557FD9058440F551F59F05F3F71F0F2
:101610004795880F97FB991F61F09F3F79F0879559
:101620000895121613061406551FF2CF4695F1DFE2
:1016300008C0161617061806991FF1CF8695710572
:10164000610508940895E894BB2766277727CB01A6
:1016500097F908958ADF08F48FEF08950BD0C0CF73
:10166000B1DF28F0B6DF18F0952309F0A2CFA7CF9D
:101670001124EACFC6DFA0F3959FD1F3950F50E078
:10168000551F629FF001729FBB27F00DB11D639F34
:10169000AA27F00DB11DAA1F649F6627B00DA11DDA
:1016A000661F829F2227B00DA11D621F739FB00D80
:1016B000A11D621F839FA00D611D221F749F3327F0
:1016C000A00D611D231F849F600D211D822F762F89
:1016D0006A2F11249F5750408AF0E1F088234AF086
:1016E000EE0FFF1FBB1F661F771F881F91505040D2
:1016F000A9F79E3F510570F05CCFA6CF5F3FECF39A
:10170000983EDCF3869577956795B795F795E795BD
:101710009F5FC1F7FE2B880F911D9695879597F9CE
:101720000895CF93DF938230910510F482E090E02A
:10173000E0913801F091390120E030E0A0E0B0E024
:10174000309739F14081518148175907B8F048174F
:10175000590771F482819381109729F013969C9315
:101760008E9312972CC0909339018093380127C033
:101770002115310531F04217530718F0A901DB019B
:1017800001C0EF019A01BD01DF010280F381E02D6C
:10179000D7CF21153105F9F0281B390B243031053D
:1017A00080F48A819B816115710521F0FB0193838F
:1017B000828304C09093390180933801FE013296F0
:1017C00044C0FE01E20FF31F81939193225031092F
:1017D000398328833AC02091360130913701232B79
:1017E00041F420910201309103013093370120939D
:1017F000360120910001309101012115310541F49C
:101800002DB73EB74091040150910501241B350BC3
:10181000E0913601F0913701E217F307A0F42E1B97
:101820003F0B2817390778F0AC014E5F5F4F241744
:10183000350748F04E0F5F1F509337014093360134
:101840008193919302C0E0E0F0E0CF01DF91CF916E
:101850000895CF93DF93009709F487C0FC01329776
:1018600013821282C0913801D0913901209781F4FE
:1018700020813181280F391F8091360190913701E5
:101880008217930779F5F0933701E09336016DC025
:10189000DE0120E030E0AE17BF0750F412964D9104
:1018A0005C9113979D014115510509F1DA01F3CFC0
:1018B000B383A28340815181840F951F8A179B07B0
:1018C00071F48D919C911197840F951F02969183CD
:1018D000808312968D919C91139793838283211517
:1018E000310529F4F0933901E09338013EC0D90164
:1018F0001396FC93EE9312974D915D91A40FB51F33
:10190000EA17FB0779F480819181840F951F029675
:10191000D90111969C938E938281938113969C9307
:101920008E931297E0E0F0E08A819B81009719F096
:10193000FE01EC01F9CFCE01029628813981820F98
:10194000931F20913601309137012817390769F428
:10195000309729F4109239011092380102C0138295
:101960001282D0933701C0933601DF91CF91089551
:04197000F894FFCF19
:0C19740000003A0120000100000001000A
:00000001FF
